:10080000C2A2C2A1C2A0C292C291C290C2A3C29708
:10081000D2A7C295C296C2A6D2A7E4F50AF50B05E7
:100820000BE50B7002050AB420F5E50AB44EF0752D
:100830008901E4F58CF58AD2A6E4F50AF50B050BDF
:10084000E50B7002050A640B450A70F2C2A630A7D8
:10085000FDD28C20A7FDC28CAF8C7E00ADF0EFA83E
:1008600005088005C333CE33CED8F9F5098E08AF1D
:100870008A2FF509E43508F508FEAF097C007D05EF
:100880001208C68E088F09E4F58CF58AF50AF50B77
:10089000050BE50B7002050AB421F5E50AB44EF02C
:1008A000C3E5099419E50894005004D2958002C26A
:1008B00095D3E5099432E50894004005D2960208E4
:0608C00037C29602083762
:10091B00E4FDFCC3ED9FEC9E5015E4FBFA0BBB0012
:0F092B00010ABA05F8BB5FF50DBD00010C80E4B1
:01093A00229A
:0300000002093BB7
:0C093B00787FE4F6D8FD75810B020800FF
:1008C600BC000BBE0029EF8DF084FFADF022E4CC16
:1008D600F875F008EF2FFFEE33FEEC33FCEE9DECDF
:1008E600984005FCEE9DFE0FD5F0E9E4CEFD22ED25
:1008F600F8F5F0EE8420D21CFEADF075F008EF2F6F
:10090600FFED33FD4007985006D5F0F222C398FD5F
:050916000FD5F0EA22FC
:00000001FF
